:020000040800F2
:10000000000002209D4C0008ED380008F33800087D
:10001000F9380008FF380008053900080000000022
:100020000000000000000000000000000B39000884
:100030001939000800000000273900083539000888
:10004000ED4C0008ED4C0008ED4C0008ED4C0008AC
:10005000ED4C0008ED4C0008ED4C0008ED4C00089C
:10006000ED4C0008ED4C0008ED4C0008ED4C00088C
:10007000ED4C0008ED4C0008ED4C0008ED4C00087C
:10008000ED4C0008ED4C0008ED4C0008ED4C00086C
:10009000ED4C0008ED4C0008ED4C0008ED4C00085C
:1000A000ED4C0008ED4C0008ED4C0008ED4C00084C
:1000B000ED4C0008ED4C0008ED4C0008ED4C00083C
:1000C000ED4C0008ED4C0008ED4C0008ED4C00082C
:1000D000ED4C000841390008ED4C00085539000886
:1000E00069390008ED4C0008ED4C0008ED4C0008A3
:1000F000ED4C0008ED4C0008ED4C0008ED4C0008FC
:10010000ED4C0008ED4C0008ED4C0008ED4C0008EB
:10011000ED4C0008793900088D390008ED4C0008D5
:10012000ED4C0008ED4C0008ED4C0008ED4C0008CB
:10013000ED4C0008ED4C0008ED4C0008ED4C0008BB
:10014000ED4C0008ED4C0008ED4C0008ED4C0008AB
:10015000ED4C0008ED4C0008ED4C0008ED4C00089B
:10016000ED4C0008ED4C0008ED4C0008ED4C00088B
:10017000ED4C0008ED4C0008ED4C000800000000BC
:08018000ED4C0008ED4C0008F5
:1001900010B5054C237833B9044B13B10448AFF3C1
:1001A00000800123237010BD8400002000000000A7
:1001B00088B8000808B5034B1BB103490348AFF3E7
:1001C000008008BD000000008800002088B80008FA
:1001D00053B94AB9002908BF00281CBF4FF0FF31AE
:1001E0004FF0FF3000F074B9ADF1080C6DE904CEAA
:1001F00000F006F8DDF804E0DDE9022304B0704702
:100200002DE9F047089D04468E46002B4DD18A42C9
:10021000944669D9B2FA82F252B101FA02F3C2F1FC
:10022000200120FA01F10CFA02FC41EA030E94408D
:100230004FEA1C48210CBEFBF8F61FFA8CF708FBAE
:1002400016E341EA034306FB07F199420AD91CEB86
:10025000030306F1FF3080F01F81994240F21C81B8
:10026000023E63445B1AA4B2B3FBF8F008FB103300
:1002700044EA034400FB07F7A7420AD91CEB040435
:1002800000F1FF3380F00A81A74240F20781644405
:10029000023840EA0640E41B00261DB1D44000238A
:1002A000C5E900433146BDE8F0878B4209D9002DEE
:1002B00000F0EF800026C5E9000130463146BDE878
:1002C000F087B3FA83F6002E4AD18B4202D38242E2
:1002D00000F2F980841A61EB030301209E46002D91
:1002E000E0D0C5E9004EDDE702B9FFDEB2FA82F2E6
:1002F000002A40F09280A1EB0C014FEA1C471FFA44
:100300008CFE0126200CB1FBF7F307FB131140EA2A
:1003100001410EFB03F0884208D91CEB010103F1F7
:10032000FF3802D2884200F2CB804346091AA4B2B9
:10033000B1FBF7F007FB101144EA01440EFB00FE8D
:10034000A64508D91CEB040400F1FF3102D2A645F2
:1003500000F2BB800846A4EB0E0440EA03409CE791
:10036000C6F12007B34022FA07FC4CEA030C20FA3E
:1003700007F401FA06F31C43F9404FEA1C4900FA5E
:1003800006F3B1FBF9F8200C1FFA8CFE09FB1811DB
:1003900040EA014108FB0EF0884202FA06F20BD94E
:1003A0001CEB010108F1FF3A80F08880884240F29E
:1003B0008580A8F102086144091AA4B2B1FBF9F0E2
:1003C00009FB101144EA014100FB0EFE8E4508D9DD
:1003D0001CEB010100F1FF346CD28E456AD9023862
:1003E000614440EA0840A0FB0294A1EB0E01A14247
:1003F000C846A64656D353D05DB1B3EB080261EBB5
:100400000E0101FA07F722FA06F3F1401F43C5E98E
:10041000007100263146BDE8F087C2F12003D840C4
:100420000CFA02FC21FA03F3914001434FEA1C4706
:100430001FFA8CFEB3FBF7F007FB10360B0C43EAF8
:10044000064300FB0EF69E4204FA02F408D91CEBA8
:10045000030300F1FF382FD29E422DD902386344A6
:100460009B1B89B2B3FBF7F607FB163341EA034146
:1004700006FB0EF38B4208D91CEB010106F1FF3895
:1004800016D28B4214D9023E6144C91A46EA00468C
:1004900038E72E46284605E70646E3E61846F8E61E
:1004A0004B45A9D2B9EB020864EB0C0E0138A3E767
:1004B0004646EAE7204694E74046D1E7D0467BE748
:1004C000023B614432E7304609E76444023842E7C0
:1004D000704700BF034613F8012B002AFBD1181AFE
:1004E000013870470000000000000000000000001C
:1004F00001F0FF01102A2BDB10F0070F08D010F8D5
:10050000013B013A8B422DD010F0070F42B3F6D1D8
:10051000F0B441EA012141EA014122F007047FF0F1
:1005200000070023F0E80256083C85EA010586EA48
:10053000010685FA47F5A3FA87F586FA47F6A5FA84
:1005400087F68EB9EED1F0BC01F0FF0102F0070290
:1005500032B110F8013B013A83EA010313B1F8D13B
:100560000020704701387047002D06BF354603381C
:10057000073815F0010F07D1013015F4807F02BF55
:10058000013015F4C03F0130F0BC0138704700BFA6
:1005900080B500AF074B084A1A60064805F0ABFC6F
:1005A0000346002B03D02B21044800F001FB00BFC1
:1005B00080BD00BFA000002000300240A0B80008AD
:1005C00080B485B000AF78607B681B680B4A9342AB
:1005D0000DD10023FB600A4B1B6B094A43F4805387
:1005E0001363074B1B6B03F48053FB60FB6800BF76
:1005F0001437BD465DF8047B704700BF00300240F1
:100600000038024080B582B000AF3B4600221A603D
:100610005A60174B174A1A60154805F0C5FC034687
:10062000002B03D03021144800F0C2FA00233B60B5
:1006300000237B603B46002219460D4805F03AFD39
:100640000346002B03D039210B4800F0B1FA3B469A
:1006500010221946064805F02DFD0346002B03D055
:100660004021054800F0A4FA00BF0837BD4680BD10
:10067000A800002000740040B8B8000880B58AB017
:1006800000AF786007F1140300221A605A609A6084
:10069000DA601A617B681B681B4A93422FD10023E2
:1006A0003B611A4B1B6C194A43F000531364174B00
:1006B0001B6C03F000533B613B690023FB60134B51
:1006C0001B6B124A43F001031363104B1B6B03F0C7
:1006D0000103FB60FB6830237B610323BB610023C4
:1006E000FB6107F114031946094805F0C5FD002216
:1006F0000021362005F0C9FB362005F0E2FB00BFE3
:100700002837BD4680BD00BF00740040003802405D
:100710000000024080B58CB000AF07F11C0300223E
:100720001A605A609A60DA601A610023BB61724BEA
:100730001B6B714A43F0100313636F4B1B6B03F089
:100740001003BB61BB6900237B616B4B1B6B6A4A67
:1007500043F080031363684B1B6B03F080037B61E2
:100760007B6900233B61644B1B6B634A43F00403CA
:100770001363614B1B6B03F004033B613B69002374
:10078000FB605D4B1B6B5C4A43F0010313635A4BE8
:100790001B6B03F00103FB60FB680023BB60564B3F
:1007A0001B6B554A43F002031363534B1B6B03F05F
:1007B0000203BB60BB6800237B604F4B1B6B4E4A40
:1007C00043F0080313634C4B1B6B03F008037B607F
:1007D0007B68002249F29F11484805F001FF012281
:1007E0000121474805F0FCFE00220221444805F0A3
:1007F000F7FE01220121434805F0F2FE00224FF4EA
:100800004061404805F0ECFE00224FF470713E4814
:1008100005F0E6FE49F29F13FB6101233B620023D2
:100820007B620023BB6207F11C031946334805F0C5
:1008300023FD0323FB6101233B6200237B6203232F
:10084000BB6207F11C0319462D4805F015FD012375
:10085000FB6101233B6200237B620323BB6207F140
:100860001C031946274805F007FD4FF44063FB6160
:1008700001233B6200237B620023BB6207F11C0360
:100880001946204805F0F8FC4FF48053FB614FF403
:1008900004133B6200237B6207F11C0319461948CD
:1008A00005F0EAFC4FF44073FB6101233B62002337
:1008B0007B620023BB6207F11C031946124805F056
:1008C000DBFCC023FB6101233B6200237B6203232B
:1008D000BB6207F11C0319460B4805F0CDFC002252
:1008E0000421282005F0D1FA282005F0EAFA00BFFB
:1008F0003037BD4680BD00BF0038024000100240C6
:100900000008024000040240000C024080B500AF25
:10091000134B144A1A60124B134A5A60104B0022B0
:100920009A600F4B0022DA600D4B4FF480421A613F
:100930000B4B00225A610A4B00229A61084B00229D
:10094000DA61074B00221A62054805F095FE03465E
:10095000002B03D03321054800F02AF900BF80BDE9
:10096000BC00002000540040A0860100D0B8000860
:1009700080B58AB000AF786007F1140300221A60D6
:100980005A609A60DA601A617B681B68194A934260
:100990002BD100233B61184B1B6B174A43F002031A
:1009A0001363154B1B6B03F002033B613B69C023D0
:1009B0007B611223BB610023FB6103233B620423A1
:1009C0007B6207F1140319460C4805F055FC00231F
:1009D000FB60094B1B6C084A43F400131364064B7D
:1009E0001B6C03F40013FB60FB6800BF2837BD4697
:1009F00080BD00BF005400400038024000040240A7
:100A000080B586B000AFF860B9607A604FF0FF3310
:100A10000122B968074807F097FF0346FB75FB7D85
:100A2000002B01D1012300E0002318461837BD46F2
:100A300080BD00BF5024002080B584B000AFF860B6
:100A4000B9607A607968B86801F016FE7B6818466C
:100A50001037BD4680BD000080B500AF09F070F8CA
:100A60001A4BDB68194A43F48063D36000F030F816
:100A7000FFF750FEFFF7C6FD02F0A4FF03F05AF89F
:100A800003F0E0F803F050F903F0BEFF03F08EFF2F
:100A900003F0E8FFFFF77CFD03F082FA03F0DCFAD5
:100AA00003F032FB03F088FB03F0E2FB03F038FCB9
:100AB00002F0E4FD03F0C4F9FFF728FF02F018FE8E
:100AC00001F0B4FA01F0A8FBFCE700BFF0ED00E094
:100AD00080B594B000AF07F1200330220021184602
:100AE00009F08EFC07F10C0300221A605A609A602C
:100AF000DA601A610023BB602A4B1B6C294A43F061
:100B000080531364274B1B6C03F08053BB60BB689E
:100B100000237B60244B1B68234A43F4804313600B
:100B2000214B1B6803F480437B607B6801233B629D
:100B30004FF480337B620223BB634FF48003FB637B
:100B400008233B644FF4A8737B640223BB64072330
:100B5000FB6407F12003184605F0D2FE0346002B84
:100B600003D0B721114800F023F80F23FB600223C4
:100B70003B6100237B614FF4A053BB614FF4805372
:100B8000FB6107F10C030521184606F031F9034615
:100B9000002B03D0C521054800F00AF800BF5037EC
:100BA000BD4680BD0038024000700040E8B8000833
:100BB00080B582B000AF786039603968786801F03C
:100BC00091FD00BF0837BD4680BD80B485B000AF41
:100BD000F860B9607A603B60FA68BB68D31AB9699B
:100BE0003A688A1A03FB02F27968BB68CB1A92FB57
:100BF000F3F23B68134418461437BD465DF8047B96
:100C00007047000080B400AFBFF34F8F00BF064BAA
:100C1000DB6803F4E0620449044B1343CB60BFF389
:100C20004F8F00BF00BFFDE700ED00E00400FA05B4
:100C300080B483B000AF786039607B683A681A602E
:100C40007B68002283F83E207B68002283F83F20E7
:100C50007B68002283F840207B68002283F84120D3
:100C60007B6818460C37BD465DF8047B704780B43E
:100C700083B000AF78600B46FB707B68FA7883F82E
:100C80003E2000BF0C37BD465DF8047B704780B442
:100C900083B000AF78600B46FB707B68FA7883F80E
:100CA0003F2000BF0C37BD465DF8047B704780B421
:100CB00083B000AF78600B46FB7013463B80FB7837
:100CC000013B7A680C335B0013443A88DA8000BF3A
:100CD0000C37BD465DF8047B7047000080B500AF5F
:100CE000044B1B68044A11880022184605F078FC62
:100CF00000BF80BD382500204025002080B500AF12
:100D0000044B1B68044A11880122184605F068FC50
:100D100000BF80BD382500204025002080B483B06E
:100D200000AF78600B467B80054A7B681360054AFC
:100D30007B88138000BF0C37BD465DF8047B70478D
:100D4000382500204025002080B483B000AF7860B3
:100D50000B467B80054A7B681360054A7B881380BD
:100D600000BF0C37BD465DF8047B70473C25002072
:100D70004225002080B483B000AF786039603B68C2
:100D800018460C37BD465DF8047B704780B483B0CD
:100D900000AF78607B68B3F5007F05D24FF4007236
:100DA0007B68B2FBF3F300E0012318460C37BD4625
:100DB0005DF8047B7047000080B582B000AF034649
:100DC000FB710B46BB7113467B71FB79002B01D085
:100DD000012300E000231A4610210E4805F000FC14
:100DE000BB79002B01D0012300E000231A46082123
:100DF000084805F0F5FB7B79002B01D0012300E0CA
:100E000000231A460421034805F0EAFB00BF083717
:100E1000BD4680BD0010024080B500AF02212648CB
:100E2000FFF77CFF01212448FFF78EFFFFF756FFF5
:100E3000142008F0F7FE04F06FFA0346002B0CBFF5
:100E400001230023DBB2002B06D01C4800F04EF833
:100E500059211B48FFF7ACFE04F011FA282004F0DA
:100E600034FB002004F0BBFB0C2004F010FB03203B
:100E700004F039FB1349002004F046FB2022012135
:100E8000002004F0C7FB062004F08EFB012004F0D4
:100E9000B2FA012004F0D9FA002004F00FFC01207E
:100EA00004F08BFA04F042FC022004F067FAFFF72A
:100EB00025FF00BF80BD00BF0008024004B9000844
:100EC0001CB900080800002080B582B000AF0346BE
:100ED000FB71F91DC8230122034807F0A3FC00BFE2
:100EE0000837BD4680BD00BF5024002080B582B0C9
:100EF00000AF78607868FFF7EDFA03469AB2C8232E
:100F00007968034807F08EFC00BF0837BD4680BDF6
:100F100050240020B0B592B002AF03460A46FB71E0
:100F20001346BB80FA7991491346DB0013449B00BA
:100F30000B4407F108041D460FCD0FC40FCD0FC49D
:100F40002B682360BB883B633B6B03F57A733B6381
:100F5000FB79013B3A6B91B2854A22F813103B6B47
:100F600040F2E772934206D1FB79013B804A0021AF
:100F700022F81310F7E07F4B9B781946FB795A1E35
:100F80001346DB009B1A9B0040F20B3201FB02F27E
:100F900013441033774A13440833FB623B7A012B26
:100FA0000BD17B69002B00F0DB80FB79013B704AA1
:100FB00032F813207B691A60D5E03B7A022B11D1FD
:100FC0007B69002B00F0CE803B6B40F2DC529342F9
:100FD00004D97B6941F658321A60C4E07B6900226B
:100FE0001A60C0E03B7A052B12D1BB69002B00F0E0
:100FF000BA80386B40F6FF73009300234FF4FA6217
:101000004FF47A71FFF7E1FD0246BB691A60AAE06E
:101010003B7A042B60D10023FB63FB6ADB7A002B55
:101020002AD03B6B40F2DC5293420FD9386BFB6AFB
:101030001B691A46FB6A5B69009313464FF4FA6218
:1010400040F2DC51FFF7C1FD0346FB633B6B40F20E
:10105000DB5293421ED8386BFB6A1B691A46FB6A47
:101060005B69009313464FF47A7240F2DC51FFF74C
:10107000ACFD0346FB630DE0386BFB6A1B691A4647
:10108000FB6A5B69009313464FF4FA624FF47A717E
:10109000FFF79BFDFB690222F96B184603F002FF84
:1010A0003223BB63FB6ADB7A002B06D03B6B40F23A
:1010B000DC52934201D10023BB633B6BB3F57A7FD3
:1010C00001D10023BB63F86997F8203019468323C8
:1010D000BA6B03F047FF46E03B7A032B43D1002372
:1010E0007B63FB6ADB7A002B24D03B6B40F2DC5243
:1010F00093420CD9386B40F2FF33009300234FF436
:10110000FA6240F2DC51FFF760FD03467B633B6B04
:1011100040F2DB5293421AD8386B40F2FF3300930F
:1011200000234FF47A7240F2DC51FFF74EFD034684
:101130007B630CE0386B40F2FF33009300234FF4E5
:10114000FA624FF47A71FFF740FD03467B63F8695A
:1011500097F8203019460A237A6B03F003FF02E068
:1011600000BF00E000BF4037BD46B0BD3C010020DD
:10117000D00400204005002080B590B000AF78601A
:101180000B46FB701346BB70BB78FF2B03D11B488B
:1011900009F01EFAC3E3FB78062B15D10023FB638D
:1011A000FB78FA6B9A420BDAFB6B7A6813441B7874
:1011B0001946134809F00CFAFB6B0133FB63EFE7A8
:1011C0000A20FFF781FEAAE3202279680D4809F082
:1011D000FDF80C4B1B7803F00F0387F82F3097F8BE
:1011E0002F30032B00F0F081032B00F39883012BA9
:1011F0000AD0022B00F04D8291E300BF38B90008FD
:101200004CB90008000500204021B94805F001FA5A
:10121000B84B1B88C3F309139BB219460120FFF793
:1012200079FEB44B1B68C3F389339BB21946022085
:10123000FFF770FEAF4BDA781B7903F003031B0254
:1012400013439BB219460320FFF764FEA94B9B880A
:10125000C3F389039BB219460420FFF75BFEA54B3D
:101260005B68C3F309339BB219460520FFF752FEB2
:10127000A04BDB88C3F389139BB219460620FFF706
:1012800049FE9C4B1B89C3F309039BB219460720F7
:10129000FFF740FE974B9B68C3F389239BB2194627
:1012A0000820FFF737FE934B5B89C3F309139BB20A
:1012B00019460920FFF72EFE8E4BDA7A9209D2B238
:1012C0001B7B9B0013439BB219460A20FFF722FEAB
:1012D000884BDB68C3F309239BB219460B20FFF749
:1012E00019FE844BDB89C3F389039BB219460C209A
:1012F000FFF710FE7F4BDA7B1209D2B21B7C03F0A2
:101300003F031B0113439BB219460D20FFF702FE5A
:10131000784B1B8AC3F389139BB219460E20FFF743
:10132000F9FD744B5B8AC3F309039BB219460F2086
:10133000FFF7F0FD6F4BDA7C9208D2B21B7D03F011
:101340000F039B0113439BB219461020FFF7E2FDE8
:10135000684B9B8AC3F309139BB219461120FFF710
:10136000D9FD644B5B69C3F389339BB219461220E4
:10137000FFF7D0FD5F4BDA7D1B7E03F003031B02FA
:1013800013439BB219461320FFF7C4FD594B1B8B27
:10139000C3F389039BB219461420FFF7BBFD554BDD
:1013A0009B69C3F309339BB219461520FFF7B2FDC1
:1013B000504B5B8BC3F389139BB219461620FFF782
:1013C000A9FD4C4B9B8BC3F309039BB21946172015
:1013D000FFF7A0FD474BDB69C3F389239BB2194696
:1013E0001820FFF797FD08F011FC386100233B72CD
:1013F00000237B723B691B0EDBB2BB723B691B0C8B
:10140000DBB2FB723B691B0ADBB23B733B69DBB2AD
:101410007B7307F10801BB780622184604F007FA2F
:10142000344B1B88C3F309139BB21BB21A4601212C
:101430003148FFF73CFC2F4B1B68C3F389339BB249
:101440001BB21A4602212C48FFF731FC294BDA78EF
:101450001B7903F003031B0213439BB21BB21A4612
:1014600003212548FFF723FC224B9B88C3F3890304
:101470009BB21BB21A4604211F48FFF718FC1D4BF4
:101480005B68C3F309339BB21BB21A4605211A48A5
:10149000FFF70DFC174BDB88C3F389139BB21BB21C
:1014A0001A4606211448FFF702FC124B1B89C3F3AE
:1014B00009039BB21BB21A4607210F48FFF7F7FB3F
:1014C0000C4B9B68C3F389239BB21BB21A460821BD
:1014D0000948FFF7ECFB074B5B89C3F309139BB289
:1014E0001BB21A4609210448FFF7E1FB06E000BFE2
:1014F000000C024000050020B81D0020A14BDA7A44
:101500009209D2B21B7B9B0013439BB21BB21A46BB
:101510000A219D48FFF7CBFB9A4BDB68C3F30923F5
:101520009BB21BB21A460B219748FFF7C0FB954BA5
:10153000DB89C3F389039BB21BB21A460C21924884
:10154000FFF7B5FB8F4BDA7B1209D2B21B7C03F09D
:101550003F031B0113439BB21BB21A460D218A485D
:10156000FFF7A5FB874B1B8AC3F389139BB21BB202
:101570001A460E218448FFF79AFB824B5B8AC3F31D
:1015800009039BB21BB21A460F217F48FFF78FFB5E
:101590007C4BDA7C9208D2B21B7D03F00F039B01D7
:1015A00013439BB21BB21A4610217748FFF77FFB0B
:1015B00000217548FFF75BFB00217348FFF767FBCD
:1015C000724B01221A70AAE11E216E4804F006FB3C
:1015D0000346BB856B4BDB8B7B85BA8D7B8D9A423B
:1015E00025D07B8DBA8D1946694808F0F1FF694B0B
:1015F0001B881946684808F0EBFF0023BB63BB6BF0
:101600001F2B0BDC5F4ABB6B13441B7819466348E6
:1016100008F0DEFFBB6B0133BB63F0E7604809F005
:101620005DF8604B00225A7000229A7077E18021A9
:101630005D4804F0EEFF5D4B01221A70514B5B7860
:101640001B021AB24F4B9B781BB213431BB29AB2C8
:10165000574B1A804B4BDA78564B1A70514B02227B
:101660001A70BB7801224F49184604F0E0F8524B3B
:101670001B6841F65B020021184608F0C1FE4C4B86
:101680001B8819464B4B1B781A464C4808F0A0FFA4
:1016900045E120220021434808F0B2FE414B0222DE
:1016A0001A708021404804F0B4FF404B1B78002B97
:1016B00003D1434808F08CFF2AE1324BB3F80130E4
:1016C0009AB2344B1A80334B1A88364BA3F8012058
:1016D000394B1B687B623B4B3B622E4B1A88344B69
:1016E0001B889A4272D1334B1B78002B00F010817B
:1016F000354808F0F3FF274B1B881A4613465B005A
:101700001344DA0013441A467B6A13447B621E2199
:101710001C4804F063FA0346FB821A4BDB8BBB8246
:10172000FA8ABB8A9A4225D0FB8ABA8A1946184897
:1017300008F04EFF174B1B881946174808F048FF62
:1017400000237B637B6B1F2B0BDC0E4A7B6B1344EC
:101750001B781946114808F03BFF7B6B01337B6314
:10176000F0E70F4808F0BAFF0E4B00225A70002233
:101770009A70CDE00F4B1B781A46396A786A08F0E8
:1017800017FEC5E000050020B81D0020CC04002095
:1017900054B90008001E00208CB9000898B9000850
:1017A000A0B9000820050020000C0240A01D002068
:1017B000A21D0020A41D00209C1D0020A4B900082B
:1017C000B4B9000803050020CCB90008554B1B88AC
:1017D0001A46554B1B8801339A4253D11E21534858
:1017E00004F0FCF903467B83504BDB8B3B837A8B05
:1017F0003B8B9A4225D07B8B3A8B19464C4808F09C
:10180000E7FE484B1B8819464A4808F0E1FE0023D2
:101810003B633B6B1F2B0BDC444A3B6B13441B7835
:101820001946454808F0D4FE3B6B01333B63F0E7B3
:10183000424808F053FF424B00225A7000229A702F
:1018400066E0404808F04AFF3F4B1B683F4A10469D
:10185000194641F65B031A4608F0AAFD40F21662EB
:101860003A493B4804F063FB03463A4A13603A4B5B
:1018700000221A702D4B5B68384A1360384B0122E6
:101880001A7045E0274B1A88274B1B889A423AD298
:10189000244B1B881A4613465B001344DA0013449A
:1018A0001A467B6A13447B62274B1B6803F5C243CD
:1018B0006C337A6A9A4207D92A4808F00FFF40F23F
:1018C00077112948FFF774F91E21184804F086F9AA
:1018D0000346FB83154BDB8BBB83FA8BBB8B9A4296
:1018E0000BD0FB8BBA8B1946204808F071FE144BC5
:1018F00000225A7000229A700AE01B22396A786A24
:1019000008F056FD04E04FF4C1711748FFF750F995
:10191000BB7805220A49184603F089FF00BF40370B
:10192000BD4680BD001E0020A21D00200005002035
:10193000D8B900088CB9000898B90008A0B9000807
:10194000200500200CBA00089C1D00204005002046
:10195000A0000020A81D0020A01D0020AC1D00201C
:10196000A51D00201CBA00081CB9000838BA0008E0
:1019700080B487B000AF78600B46FB70FF23FB7527
:1019800000233B61FB783A699A4222D27A683B692C
:1019900013441A78FB7D5340FB750023FB60FB6802
:1019A000072B12D897F91730002B07DAFB7D5B0065
:1019B0005BB283F031035BB2FB7502E0FB7D5B0041
:1019C000FB75FB680133FB60E9E73B6901333B6171
:1019D000D8E7FB7D18461C37BD465DF8047B704791
:1019E00090B583B000AF08F011F90346294A13609F
:1019F0000023FB713023BB71FB795A1CFA711A4624
:101A0000254B1978254B9954FB795A1CFA711A46C3
:101A1000224B00219954FB795A1CFA7119461F4A2E
:101A2000BB795354FB791D4A1344BA791C491846B3
:101A300008F0BEFCFA79BB791344FB71194AFB79B3
:101A4000591CF9711C46BB7919461046FFF790FFE7
:101A500003461A46114B1A55FB795A1CFA711A465D
:101A6000114B19780D4B9954FB799BB21A460B49CF
:101A70000E4807F00BF80346002B14BF0123002388
:101A8000DBB2002B02D00A4808F028FE00BF0C375A
:101A9000BD4690BD042000200B000020041F002044
:101AA000D0040020071F00200D000020DC230020B0
:101AB0006CBA000880B483B000AF786000BF0C3708
:101AC000BD465DF8047B704780B584B000AF786098
:101AD000294B9B78FB73FB7B0333274AD35CBB7397
:101AE000FB7B0433244AD35C7B73244B1B787A7BC7
:101AF0009A4210D0224B1B781A461F4BD118FB7B01
:101B00009AB2204B1B789BB213449BB21A461E48D4
:101B100007F001F82CE0184B5B78002B02D0012B6A
:101B200006D01DE0194808F0D9FDFFF759FF17E06E
:101B3000174808F0D3FD174B01221A70164B1B787B
:101B40001A460D4B9B5C1B02134A127801320A495C
:101B50008A5C13431A46114B1A60FFF741FF00BF1E
:101B6000074B1B789BB21A460349074806F0D3FF80
:101B70001037BD4680BD00BF041E00200D000020B0
:101B80000C0000200E000020DC23002078BA0008A2
:101B900084BA0008082000200F0000200C2000203C
:101BA00080B582B000AF78600C4B1B6C03F008036B
:101BB000002B14BF01230023DBB2002B02D0084806
:101BC00008F08CFD074B1B789BB21A460649034868
:101BD00006F0A1FF00BF0837BD4680BDDC23002012
:101BE0008CBA00080C000020041E002080B584B0D0
:101BF00000AF0346FB71FB79002B0DD10123FB6085
:101C0000FB68182B20DCFB68DBB21846FFF7EEFF01
:101C1000FB680133FB60F3E70D4B9B781846FB79BB
:101C20005A1E0B491346DB009B1A9B0040F20B32F5
:101C300000FB02F213440B4420331B889AB2FB7959
:101C400011461846FFF766F900BF1037BD4680BD44
:101C50004005002080B586B004AF03463960FB71B3
:101C60001346BB71BA79F8790023039300230293DA
:101C700000230193002300930023396800F020F82B
:101C800000BF0837BD4680BD80B588B004AFB960DD
:101C90007B600346FB731346BB73BA7BF87BFB691F
:101CA0000393BB69029300230193002300937B6895
:101CB000B96800F005F800BF1037BD4680BD0000D0
:101CC00080B588B000AFB9607B600346FB731346F4
:101CD000BB73BB7B0C2B31D801A252F823F000BFA1
:101CE000151D00083D1D00083D1D00083D1D000894
:101CF0001F1D00083D1D00083D1D00083D1D00087A
:101D0000291D00083D1D00083D1D00083D1D00085F
:101D1000331D0008BB681B683433FB6113E0BB68EC
:101D20001B683833FB610EE0BB681B683C33FB610A
:101D300009E0BB681B684033FB6104E04FF40371AA
:101D40004448FEF735FFFA7B1346DB0013449B0043
:101D5000414A1344BB61BB69FA69DA60BB69BA687E
:101D60005A60BB69BA7B1A72BB697A681A61BB692F
:101D7000BA6A5A61BB6A002B03D0BB6997F82C2062
:101D80001A763B6B002B07D0BB693A6BDA617B6B31
:101D9000DAB2BB6983F82020304B9B781946FB7B75
:101DA0005A1E1346DB009B1A9B0040F20B3201FBCC
:101DB00002F213441033294A134408337B617B69D0
:101DC0009B7A013B042B3CD801A252F823F000BFC0
:101DD000431E0008431E0008E51D00080B1E0008F6
:101DE000F51D0008BB6958697B69DB68022219464A
:101DF00003F058F8BB69D869BB6993F820309BB2EF
:101E00000122194604F0ECFB1BE0BB69D869BB69F1
:101E100093F820309BB20122194604F0E1FBBB6924
:101E200058697B691B690222194603F03BF8BB69BC
:101E30005869BB691B7E19468023002203F092F883
:101E400000BF7B699A7ABB691A7000BF2037BD4614
:101E500080BD00BF1CB900083C01002040050020E7
:101E600080B584B004AF624B1B6834334FF480629A
:101E70000392604A0292002201925D4A009200227F
:101E80005D490120FFF71CFF594B1B6838334FF4A5
:101E900000620392574A029204220192544A00922D
:101EA000042255490220FFF70BFF08225249032064
:101EB000FFF7D0FE0C2250490420FFF7CBFE4F4B1A
:101EC0001B680833802201924D4A00920C224D4932
:101ED0000520FFF7D9FE494B1B6814334FF480727D
:101EE0000192474A0092002247490620FFF7CCFEA4
:101EF000042245490720FFF7ADFE444B1B683433ED
:101F00004FF4805203923E4A0292002201923F4ACD
:101F1000009208223C490820FFF7D2FE3C4B1B6888
:101F200034334FF400420392354A02920022019268
:101F3000374A00920C2234490920FFF7C1FE354B85
:101F40001B6834334FF480720392334A02920022AA
:101F50000192304A0092002230490A20FFF7B0FE79
:101F60002C4B1B6838334FF4007203922A4A0292BA
:101F700004220192274A0092042228490B20FFF7ED
:101F80009FFE082225490C20FFF764FE0C222349FE
:101F90000D20FFF75FFE002221490E20FFF75AFEB9
:101FA00004221F490F20FFF755FE1E4B1B683433D8
:101FB00001220392124A029200220192194A0092CF
:101FC000082217491020FFF77BFE174B1B6834339C
:101FD000022203920A4A029200220192124A0092BD
:101FE0000C220F491120FFF76BFE00BFBD4680BDDC
:101FF0002C220020000402400C210020A800002018
:102000000010024054210020C42000204C23002056
:102010009423002004230020000C02409C21002077
:10202000E421002074220020BC22002080B584B06E
:1020300000AF654A0121654806F04CFB644A042163
:10204000624806F047FB634B00221A60614B002296
:102050005A6020220021604808F0D2F92022002195
:102060005E4808F0CDF900237B605D4B1B6B5C4A3A
:1020700043F4801313635A4B1B6B03F480137B6090
:102080007B68012200210020FEF796FE642007F005
:10209000C9FD544808F022FB07F0F0FE524B534AAA
:1020A0001A65514B524A9A644F4B524A5A65524BE9
:1020B0001B789BB21A4651494B4806F02CFDFEF79F
:1020C000ABFE002200210020FEF776FEFFF7C8FEDF
:1020D0000020FFF78BFD0023FB60FB68182B65DCFD
:1020E0004749FA681346DB0013449B000B44043352
:1020F0001B68002B25D04249FA681346DB001344C5
:102100009B000B44043318683D49FA681346DB0012
:1021100013449B000B4408331B78194605F058FE06
:102120000346002B14BF01230023DBB2002B08D091
:10213000F968344808F04CFA4FF421713248FEF740
:1021400037FD2F49FA681346DB0013449B000B440C
:1021500014331B68002B25D02949FA681346DB008D
:1021600013449B000B44143318682549FA6813463E
:10217000DB0013449B000B4418331B78194605F011
:1021800027FE0346002B14BF01230023DBB2002BE4
:1021900008D0F9681D4808F01BFA40F28A211A4855
:1021A000FEF706FDFB680133FB6096E741F65B0333
:1021B000BB60B968164808F00BFA164808F08EFAAA
:1021C00000BF1037BD4680BD012600085024002006
:1021D000E5250008C404002020050020000500209B
:1021E000003802409CBA0008DC230020C91A00080D
:1021F000B51A0008A11B00080C000020041E0020D6
:102200003C010020B4BA00081CB90008E4BA000878
:1022100014BB00082CBB000880B5ADF5087D00AFED
:1022200007F0F4FCC7F81402A84B1B78002B20D051
:10223000A74AD7F814321360002201210020FEF7CC
:10224000BBFDA24B00221A70002387F8033207F26D
:1022500003223B461146184603F0DAFA034687F894
:10226000133297F8031297F813223B461846FEF7ED
:1022700083FF07F0CBFCC7F81402954B1B68D7F817
:102280001422D31AB3F57A7F24D9D7F81422914BAC
:10229000A3FB02135B094FF4FA7101FB03F3D31A9A
:1022A000002B05D1002200210120FEF785FD2EE044
:1022B000D7F81422874BA3FB02131B09FA2101FB59
:1022C00003F3D31A002B22D1002200210020FEF7B5
:1022D00073FD1CE07E4B1B68D7F81422D31AB3F5AC
:1022E000FA7F09D9012200210020FEF765FD0121B6
:1022F0007948FEF7BCFC0AE0754B1B68D7F814223E
:10230000D31A142B03D901217348FEF7C0FC734B79
:102310001B68D7F81422D31A062B06D96F4AD7F8B0
:10232000143213606C4803F0ABFA6D4BDB8D9BB23B
:10233000002B14BF01230023DBB2002B0FD007F5C5
:10234000007101230122664806F0FEFA97F8003278
:102350002A2B04D1634808F03BF9FEF753FC07F041
:1023600055FCC7F81402604B1B68D7F81422D31A27
:10237000B3F57A7F56D35C4AD7F81432136007F569
:102380000873A3F5087300221A6004334FF4FE7239
:102390000021184608F034F83B46C7F81C32D7F83D
:1023A00014225249D7F81C0208F0F4F903461A46E1
:1023B000D7F81C321344C7F81C320023C7F8183270
:1023C000D7F818320B2B19DCD7F818325A1C4849A9
:1023D000D7F8183231F813304649D7F81C0208F004
:1023E000D9F903461A46D7F81C321344C7F81C32F1
:1023F000D7F818320133C7F81832E1E73E4B1A68B4
:102400003D4B5B683D49D7F81C0208F0C3F9034611
:102410001A46D7F81C321344C7F81C323B461846FC
:1024200008F0D6F8364B1B78012B3BD1354BC7F85B
:102430000C3240F21662D7F80C12334803F077FDE5
:10244000C7F80802314B1B68D7F808229A421ED100
:102450002F4808F043F907F0D9FBC7F80402012020
:1024600007F0DEFD41F65B0300220121254807F05D
:10247000CBFE07F0CBFB0246D7F80432D31A19463D
:10248000244808F0A5F81E4B00221A700AE02248E2
:1024900008F09EF81D4B1B681A46D7F808121F4813
:1024A00008F096F81E4B1B78002B0AD01D4B1B68BA
:1024B000D7F81422D21A1C4B1B689A4201D9FFF795
:1024C0008FFA00BF07F50877BD4680BDC004002025
:1024D000B41D0020D34D6210B81D0020FC1D00204B
:1024E0005024002044BB0008B01D00204CBB000855
:1024F000D004002054BB0008C404002064BB0008C2
:10250000A51D002040050020A0000020AC1D0020DB
:1025100078BB0008ACBB0008D0BB0008E4BB0008D7
:1025200008200020042000200C20002080B584B06A
:1025300000AF0346FB80FB88B3F5805F46D10121E5
:10254000244804F035F80346012B14BF012300236F
:10255000DBB2002B06D0204808F03AF81F4B0122CE
:102560001A7033E003F0C7F80346FB73FB7B03F0FC
:102570002003002B14BF01230023DBB2BB73FB7BC2
:1025800003F01003002B14BF01230023DBB27B7385
:10259000FB7B03F04003002B14BF01230023DBB2BD
:1025A0003B737B7B002B04D00D4B5B6801330C4AE3
:1025B00053603B7B002B07D0094B1B680133084A53
:1025C0001360064B01221A7003F0B0F81037BD46B5
:1025D00080BD00BF000802400CBC0008C004002001
:1025E000C404002080B582B000AF786000220021D2
:1025F000FF20FEF7E1FB00BF0837BD4680BD0000AD
:1026000090B583B000AF7860184B00221A70184B59
:102610001B68002B07D0164B1B68184607F0C0FE3E
:10262000134B00221A60134800F0B5F8034683F0FC
:102630000103DBB2002B15D00E4800F0B9F80346B9
:102640001B680B4A13600A4B1C68094B1B68184631
:10265000FDF740FF03461946204600F00DF80548F7
:1026600000F0B3F800BF0C37BD4690BD100100204C
:10267000102000201401002080B584B000AF7860E5
:102680003960154B1B78012B18D13B680133184674
:1026900007F07EFE0346FB60FB683A6879681846DF
:1026A00007F086FEFA683B68134400221A7007F1AF
:1026B0000C031946094800F094F809E0064B012282
:1026C0001A703B689BB21A467968054806F0DEF935
:1026D00000BF1037BD4680BD10010020140100204E
:1026E0005024002080B584B000AF786039600022AB
:1026F00000210120FEF760FB3A687968124807F074
:1027000067FF0023FB73642007F08CFAFB7B013327
:10271000FB73FA7B0D4BA3FB021399080B469B003E
:102720000B44D31ADBB2002B08D11021084803F068
:1027300070FF3A687968044807F04AFFFB7B142B66
:10274000E1D1FEF75FFA00BF14BC0008CDCCCCCCC1
:102750000010024080B582B000AF78607B681846F8
:1027600000F059F87B6818460837BD4680BD80B533
:1027700082B000AF78607B68184628231A46002193
:1027800007F03EFE7B681846FFF7E4FF7B681846BB
:102790000837BD4680BD80B582B000AF78607B68E9
:1027A000184600F090F8034618460837BD4680BD2D
:1027B00080B582B000AF78607B68184600F095F86D
:1027C000034618460837BD4680BD80B582B000AFCD
:1027D00078607B68184600F09CF800BF0837BD465B
:1027E00080BD80B582B000AF786039607B683968A1
:1027F000184600F0B1F800BF0837BD4680BD80B56F
:1028000082B000AF7860786800F0D7F87B6818462F
:102810000837BD4680BD80B582B000AF78607B6868
:10282000184600F0BAF80021786800F0D2F87B680A
:1028300018460837BD4680BD80B582B000AF7860CD
:102840007B681B68002B10D07B6859697B685B6ACA
:1028500004331A46786800F01FF97B6819687B68B2
:102860005B681A46786800F031F97B681846FFF714
:10287000C6FF7B6818460837BD4680BD80B58AB064
:1028800000AF786007F108037968184600F03AF95C
:1028900007F118037968184600F043F97B68184679
:1028A00000F04EF9034607F1180207F108017868B5
:1028B00000F06DF97B681846FFF7BEFF7B6818468D
:1028C0002837BD4680BD80B582B000AF78607B6898
:1028D00003F118027B6808331946104600F064F9CA
:1028E000034618460837BD4680BD80B586B000AFA8
:1028F000786007F108037968184600F003F907F1DA
:102900000803184600F064F9034618461837BD4618
:1029100080BD80B582B000AF78607B689A687B68C4
:102920001B69043B9A4210D07B68184600F008F9F6
:1029300002467B689B681946104600F055F97B6893
:102940009B681A1D7B689A6002E0786800F059F96C
:1029500000BF0837BD4680BD80B582B000AF78604B
:1029600039607B689A697B681B6A043B9A420CD089
:1029700078687B689B693A68194600F06AF97B6859
:102980009B691A1D7B689A6103E03968786800F0DA
:1029900073F900BF0837BD4680BD80B582B000AF77
:1029A0007860786800F0ACF97B68184600F0B4F9FC
:1029B0007B6818460837BD4680BD80B582B000AF41
:1029C0007860786800F0C1F97B6818460837BD4622
:1029D00080BD90B589B000AF786039600420FEF703
:1029E000D5F902463B68B3FBF2F30133FB610823E0
:1029F000FB60FB6902333B6107F1100207F10C0336
:102A00001146184600F0ACF903461A687B685A6014
:102A10007B685B681946786800F0B6F902467B6807
:102A20001A607B681A687B685968FB69CB1A5B0877
:102A30009B001344BB61FB699B00BA6913447B6133
:102A40007A69B969786800F0BCF97B680833B969BC
:102A5000184600F0D0F97B6803F118027B69043B4B
:102A60001946104600F0C7F97B68DA687B689A60FF
:102A70007B68DC690420FEF789F902463B68B3FBFA
:102A8000F2F101FB02F29B1A9B00E2187B689A614B
:102A900000BF2437BD4690BD80B586B000AFF8605A
:102AA000B9607A60BB687B617A697B689A4209D2B7
:102AB0007B691B681946F86800F0B6F97B69043336
:102AC0007B61F1E700BF1837BD4680BD80B586B099
:102AD00000AFF860B9607A6007F11403F96818462E
:102AE00000F0B5F907F114037A68B968184600F0E8
:102AF000CBF907F11403184600F0BAF900BF1837F4
:102B0000BD4680BD80B582B000AF786039603B685B
:102B100008331946786800F01EF878680837BD4613
:102B200080BD80B582B000AF786039603B681833F3
:102B30001946786800F00FF878680837BD4680BD00
:102B400080B483B000AF78607B6818460C37BD4610
:102B50005DF8047B704780B483B000AF7860396063
:102B60003B681A687B681A603B685A687B685A60E1
:102B70003B689A687B689A603B68DA687B68DA60D1
:102B80007B6818460C37BD465DF8047B704780B4FF
:102B90008DB000AFF860B9607A603B6000BF343739
:102BA000BD465DF8047B704780B483B000AF7860A9
:102BB00039607B681A683B681B689A420CBF012326
:102BC0000023DBB218460C37BD465DF8047B704726
:102BD00080B483B000AF78607B681B6818460C3700
:102BE000BD465DF8047B704780B582B000AF786069
:102BF00039603968786800F056F900BF0837BD467B
:102C000080BD80B582B000AF78607B681846FFF762
:102C100097FF02467B689B6819461046FFF7E4FF62
:102C20007A687B68DB681946104600F0FDF87B681F
:102C300003F108027B685B6904331946104600F013
:102C4000DAF87B68DA687B689A6000BF0837BD46AF
:102C500080BD80B584B000AFF860B9607A607868F4
:102C600000F02CF903461A46B968F86800F031F90B
:102C700000BF1037BD4680BDB0B582B000AF7860F0
:102C80003960786800F03BF90446786800F049F94B
:102C900003469C420CBF01230023DBB2002B02D071
:102CA000164807F02EFB0121786800F04BF97A688E
:102CB0007B685B6A1C1D104600F05FF903462360C9
:102CC0007C687B689D69386800F0F8F803461A460E
:102CD00029462046FFF7BDFF7B6803F118027B6899
:102CE0005B6A04331946104600F085F87B68DA69A0
:102CF0007B689A6100BF0837BD46B0BD34BC000890
:102D000080B582B000AF7860786800F048F97B68E1
:102D100018460837BD4680BD80B582B000AF7860E8
:102D20007B6800221A607B6800225A607B68083347
:102D3000184600F03FF97B681833184600F03AF95E
:102D40007B6818460837BD4680BD80B483B000AFAD
:102D500078607B6818460C37BD465DF8047B704789
:102D600080B483B000AF786039607B681A683B68D4
:102D70001B689A4201D23B6800E07B6818460C371A
:102D8000BD465DF8047B704790B585B000AF7860B4
:102D9000396007F10C037968184600F058F807F11C
:102DA0000C033968184600F01CF9044600BF07F10F
:102DB0000C03184600F05CF8234618461437BD464D
:102DC00090BD80B586B000AFF860B9607A60BB682E
:102DD0007B617A697B689A4209D2F86800F0CDF885
:102DE00002467B691A607B6904337B61F1E700BFAF
:102DF0001837BD4680BD90B583B000AF78603960AC
:102E00007B683A68DA603B681A687B685A607B685E
:102E10005C6800F0F5F803469B00E2187B689A6056
:102E200000BF0C37BD4690BD90B583B000AF786051
:102E300039607C680420FDF7A9FF03461A4639680B
:102E4000204600F0E5F800BF0C37BD4690BD80B5C8
:102E500082B000AF78603960386800F0E8F8034667
:102E60001946786800F0EEF878680837BD4680BDEE
:102E700080B582B000AF7860786800F0F0F87B68C9
:102E800018460837BD4680BD80B584B000AFF860F5
:102E9000B9607A607A68B968F86800F0EBF800BF4A
:102EA0001037BD4680BD80B483B000AF7860396014
:102EB00000BF0C37BD465DF8047B704780B483B01B
:102EC00000AF78607B6818460C37BD465DF8047B20
:102ED000704790B585B000AFF860B9607A607868E7
:102EE000FFF7ECFF03461C68BB6819460420FDF79A
:102EF00041FF03461C6000BF1437BD4690BD80B53E
:102F000082B000AF78607B6803F118027B680833F9
:102F10001946104600F0BEF8034618460837BD466D
:102F200080BD80B582B000AF78607B68184600F045
:102F30007EF80346184600F0D1F8034618460837D5
:102F4000BD4680BD80B582B000AF786039603B6817
:102F50005A1C7B685B687968486A79680968411A15
:102F600089105B1A9A4204D900223968786800F007
:102F7000CFF800BF0837BD4680BD90B583B000AF25
:102F800078607C680420FDF701FF0346194620465F
:102F900000F058F9034618460C37BD4690BD80B482
:102FA00083B000AF78607B6818460C37BD465DF88B
:102FB000047B704780B483B000AF78607B680022E8
:102FC0001A607B6800225A607B6800229A607B68E6
:102FD0000022DA607B6818460C37BD465DF8047B3A
:102FE000704780B582B000AF7860396000223968E0
:102FF000786800F036F9034618460837BD4680BDAC
:1030000080B500AF0420FDF7C1FE0346184680BD21
:1030100080B584B000AFF860B9607A607A68B9684A
:10302000F86800F03CF900BF1037BD4680BD80B4A1
:1030300083B000AF78607B6818460C37BD465DF8FA
:10304000047B704780B582B000AF786039607868E3
:1030500000F035F97B6818460837BD4680BD80B45E
:1030600083B000AF78607B6818460C37BD465DF8CA
:10307000047B704780B584B000AFF860B9607A60B7
:103080007B689B001946B86807F025F900BF103728
:10309000BD4680BD80B582B000AF78603960FFF773
:1030A000AFFF034619467B68DA683B68DB68D31AD2
:1030B0009B10013B01FB03F37A6811687A68526840
:1030C0008A1A921013443A6891683A6812688A1A08
:1030D0009210134418460837BD4680BD80B584B0B1
:1030E00000AF78606FF00043FB60786800F0F2F8A2
:1030F0000346BB6007F1080207F10C0311461846AE
:1031000000F0F4F803461B6818461037BD4680BD32
:1031100090B58BB000AFF860B9601346FB71FB68E7
:103120005A6AFB685B69D31A9B1001333B62BB6828
:103130003A6A1344FB61FB685A68FB695B009A4278
:103140002DD9FB681A68FB685968FB69CB1A5B08C4
:103150009900FB79002B02D0BB689B0000E00023A4
:103160000B4413447B62FB685B697A6A9A4209D21A
:10317000FB685869FB685B6A04337A6A194600F099
:10318000C9F848E0FB685869FB685B6A191D3B6A2F
:103190009B007A6A13441A4600F0D4F83BE0FB68BF
:1031A0005C68FB68043307F1080211461846FFF714
:1031B000D7FD03461B6823440233BB61FB68B96932
:1031C0001846FFF7E1FD7861BA69FB69D31A5B081D
:1031D0009A00FB79002B02D0BB689B0000E0002323
:1031E00013447A6913447B62FB685869FB685B6A25
:1031F00004337A6A194600F08DF8F868FB6819689C
:10320000FB685B681A46FFF761FCFB687A691A6025
:10321000FB68BA695A60FB680833796A1846FFF799
:10322000EAFDFB6803F118003B6A03F18043013BB0
:103230009B007A6A13441946FFF7DDFD00BF2C3767
:10324000BD4690BD80B582B000AF78603960002285
:103250003968786800F08EF8034618460837BD468E
:1032600080BD80B584B000AFF860B9607A60F8685E
:1032700000F09EF80246BB6893428CBF01230023F6
:10328000DBB2002B01D007F039F8BB689B00184671
:1032900007F023F8034618461037BD4680BD80B5B9
:1032A00084B000AFF860B9607A607B689B00194613
:1032B000B86807F010F800BF1037BD4680BD80B475
:1032C00083B000AF78607B6818460C37BD465DF868
:1032D000047B704780B582B000AF7860786800F0FA
:1032E00073F8034618460837BD4680BD80B483B0E6
:1032F00000AF786039603B681A687B681B689A4247
:1033000001D23B6800E07B6818460C37BD465DF88B
:10331000047B704790B585B000AFF860B9607A6003
:10332000F86800F05DF80446B86800F059F8034604
:103330007A681946204600F05EF8034618461437AE
:10334000BD4690BD90B585B000AFF860B9607A60B9
:10335000F86800F045F80446B86800F041F8034604
:103360007A681946204600F069F803461846143773
:10337000BD4690BD80B584B000AFF860B9607A609A
:10338000F86800F07EF80246BB6893428CBF0123C8
:103390000023DBB2002B01D006F0B0FFBB689B001E
:1033A000184606F09AFF034618461037BD4680BD02
:1033B00080B483B000AF78606FF0604318460C377C
:1033C000BD465DF8047B704780B582B000AF786081
:1033D000786800F056F8034618460837BD4680BDA9
:1033E00080B483B000AF78607B6818460C37BD4668
:1033F0005DF8047B7047B0B584B000AFF860B96089
:103400007A60F86800F049F80446B86800F045F8BA
:1034100005467B68184600F040F803461A462946E0
:10342000204600F045F802463B1D1146184600F0C4
:103430004FF8034618461037BD46B0BDB0B584B04E
:1034400000AFF860B9607A60F86800F026F80446CA
:10345000B86800F022F805467B68184600F01DF8B1
:1034600003461A462946204600F03EF802463B1D18
:103470001146184600F02CF8034618461037BD4692
:10348000B0BD80B483B000AF78606FF06043184681
:103490000C37BD465DF8047B704780B483B000AF45
:1034A00078607B6818460C37BD465DF8047B704732
:1034B00080B584B000AFF860B9607A607A68B968A6
:1034C000F86800F021F8034618461037BD4680BD65
:1034D00080B483B000AF786039603B6818460C3721
:1034E000BD465DF8047B704780B584B000AFF860DE
:1034F000B9607A607A68B968F86800F015F8034630
:1035000018461037BD4680BD80B584B000AFF86066
:10351000B9607A607A68B968F86800F015F803460F
:1035200018461037BD4680BD80B584B000AFF86046
:10353000B9607A607A68B968F86800F022F80346E2
:1035400018461037BD4680BD80B586B000AFF86024
:10355000B9607A60BA68FB68D31A9B107B617B699B
:10356000002B06D07B699B001A46F968786806F044
:103570002DFF7B699B007A68134418461837BD46B7
:1035800080BD80B586B000AFF860B9607A60BA6877
:10359000FB68D31A9B107B617B69002B0AD07B6987
:1035A0009B005B427A68D0187B699B001A46F968D9
:1035B00006F00CFF7B699B005B427A681344184657
:1035C0001837BD4680BD80B582B000AF78607B689B
:1035D0001846FFF753F97B6818460837BD4680BD8B
:1035E00080B582B000AF786039607B68012B27D14D
:1035F0003B684FF6FF72934222D11348FFF7B7F8AA
:10360000124A1349104806F061FE41F65B0006F0CD
:10361000BFFE03461A460F4B1A6006F0F7FA034640
:103620000D4A136006F0F2FA03460C4A13600C4987
:103630000C48FDF7FDFA06F0E9FA03460A4A136062
:1036400000BF0837BD4680BD1401002000000020E7
:10365000C73500089C1D0020B01D0020B41D0020AF
:10366000C4240020B81D0020FC1D002080B500AF40
:103670004FF6FF710120FFF7B3FF80BD80B500AFAB
:10368000184B194A1A60174B4FF482725A60154B47
:1036900000229A60134B0022DA60124B00221A615A
:1036A000104B00225A610F4B4FF400729A610D4B80
:1036B0000822DA610B4B00221A620A4B00225A627E
:1036C000084B00229A62074B0A22DA62054803F08F
:1036D000E1FD0346002B03D037210448FDF768FACB
:1036E00000BF80BD142000200038004064BC0008EA
:1036F00080B500AF184B194A1A60174B4FF482720D
:103700005A60154B00229A60134B0022DA60124B6C
:1037100000221A61104B00225A610F4B4FF40072C5
:103720009A610D4B0022DA610B4B00221A620A4BA0
:1037300000225A62084B00229A62074B0A22DA6280
:10374000054803F0A7FD0346002B03D0572104488A
:10375000FDF72EFA00BF80BD6C200020003C004029
:1037600064BC000880B58CB000AF786007F11C0322
:1037700000221A605A609A60DA601A617B681B68DE
:10378000414A93424BD10023BB61404B1B6C3F4AE3
:1037900043F4804313643D4B1B6C03F48043BB61D3
:1037A000BB6900237B61394B1B6B384A43F0040330
:1037B0001363364B1B6B03F004037B617B690023AF
:1037C0003B61324B1B6B314A43F0020313632F4BB7
:1037D0001B6B03F002033B613B690C23FB6102237B
:1037E0003B6200237B620323BB620523FB6207F17C
:1037F0001C031946264802F03FFD4FF40053FB61BD
:1038000002233B6200237B620323BB620523FB622E
:1038100007F11C0319461F4802F02EFD30E07B68BB
:103820001B681D4A93422BD10023FB60174B1B6C76
:10383000164A43F400431364144B1B6C03F4004317
:10384000FB60FB680023BB60104B1B6B0F4A43F00F
:10385000020313630D4B1B6B03F00203BB60BB68D9
:103860003823FB6102233B6200237B620323BB629C
:103870000623FB6207F11C031946064802F0FCFC14
:1038800000BF3037BD4680BD0038004000380240E0
:103890000008024000040240003C004080B483B0B5
:1038A00000AF00237B60104B5B6C0F4A43F48043F6
:1038B00053640D4B5B6C03F480437B607B68002397
:1038C0003B60094B1B6C084A43F080531364064B62
:1038D0001B6C03F080533B603B6800BF0C37BD4658
:1038E0005DF8047B704700BF0038024080B400AF31
:1038F000FEE780B400AFFEE780B400AFFEE780B41F
:1039000000AFFEE780B400AFFEE780B400AF00BFB9
:10391000BD465DF8047B704780B400AF00BFBD4674
:103920005DF8047B704780B400AF00BFBD465DF812
:10393000047B704780B500AF06F054F900BF80BD2E
:1039400080B500AF024805F017F900BF80BD00BF89
:103950005024002080B500AF024805F00DF900BFEB
:1039600080BD00BFC424002080B500AF4FF480505C
:1039700002F06AFE00BF80BD80B500AF024805F0CE
:10398000FBF800BF80BD00BFDC23002080B500AF86
:10399000024802F02BFB00BF80BD00BFA800002042
:1039A00080B400AF064BD3F88830054A43F4700367
:1039B000C2F8883000BFBD465DF8047B704700BF89
:1039C00000ED00E080B592B000AF07F140030022A7
:1039D0001A605A6007F1240300221A605A609A6044
:1039E000DA601A615A619A613B1D20220021184653
:1039F00006F006FD4C4B4D4A1A604B4BA7225A600D
:103A0000494B00229A60484B41F65832DA60464BE7
:103A100000221A61444B00225A61434B80229A6172
:103A2000414804F086F90346002B03D03F2140486B
:103A3000FDF7BEF800233B6400237B6407F14003DD
:103A40001946394804F058F80346002B03D04521A5
:103A50003748FDF7ADF860237B6240F2DC53BB6270
:103A60000023FB6200233B6300237B630023BB63D3
:103A70000023FB6307F12403002219462A4804F0BF
:103A80006FFA0346002B03D050212948FDF790F828
:103A900007F1240304221946234804F061FA03467F
:103AA000002B03D054212248FDF782F807F12403AC
:103AB000082219461C4804F053FA0346002B03D091
:103AC00058211B48FDF774F807F124030C2219460E
:103AD000154804F045FA0346002B03D05C21144836
:103AE000FDF766F800237B600023BB600023FB60CA
:103AF00000233B6100237B614FF40053BB61002333
:103B00003B623B1D1946084804F072F80346002B3F
:103B100003D067210648FDF74BF8034800F060FD2D
:103B200000BF4837BD4680BDC420002000000140D2
:103B30007CBC000880B58AB000AF07F120030022EA
:103B40001A605A603B1D00221A605A609A60DA605F
:103B50001A615A619A61394B4FF080421A60374BB3
:103B600053225A60354B00229A60344B41F658324A
:103B7000DA60324B00221A61304B80229A612F4862
:103B800004F0D7F80346002B03D085212C48FDF71D
:103B90000FF800233B6200237B6207F120031946E4
:103BA000264803F0A9FF0346002B03D08B212448AD
:103BB000FCF7FEFF60237B6040F2DC53BB60002318
:103BC000FB6000237B613B1D002219461B4804F06B
:103BD000C7F90346002B03D093211948FCF7E8FFEF
:103BE0003B1D04221946154804F0BAF90346002B80
:103BF00003D097211248FCF7DBFF3B1D0822194632
:103C00000E4804F0ADF90346002B03D09B210C486D
:103C1000FCF7CEFF3B1D0C221946084804F0A0F922
:103C20000346002B03D09F210548FCF7C1FF034842
:103C300000F0D6FC00BF2837BD4680BD0C21002017
:103C40007CBC000880B58AB000AF07F120030022D9
:103C50001A605A603B1D00221A605A609A60DA604E
:103C60001A615A619A612D4B2D4A1A602B4B5322CF
:103C70005A602A4B00229A60284B41F65832DA608B
:103C8000264B00221A61254B80229A61234804F0BA
:103C900050F80346002B03D0BD212248FCF788FFD3
:103CA00000233B6200237B6207F1200319461B4877
:103CB00003F022FF0346002B03D0C3211948FCF771
:103CC00077FF60237B600023BB600023FB60002341
:103CD0007B613B1D08221946104804F041F9034658
:103CE000002B03D0CB210F48FCF762FF40F2DC53DE
:103CF000BB603B1D0C221946084804F031F903460D
:103D0000002B03D0D0210748FCF752FF034800F0F6
:103D100067FC00BF2837BD4680BD00BF542100208E
:103D2000000400407CBC000880B58AB000AF07F1F9
:103D3000200300221A605A603B1D00221A605A605C
:103D40009A60DA601A615A619A613A4B3A4A1A608B
:103D5000384B53225A60374B00229A60354B41F65C
:103D60005832DA60334B00221A61324B80229A615A
:103D7000304803F0DEFF0346002B03D0EE212F482E
:103D8000FCF716FF00233B6200237B6207F1200350
:103D90001946284803F0B0FE0346002B03D0F42157
:103DA0002648FCF705FF60237B6040F2DC53BB60D4
:103DB0000023FB6000237B613B1D002219461D4848
:103DC00004F0CEF80346002B03D0FC211B48FCF77F
:103DD000EFFE3B1D04221946164804F0C1F80346C5
:103DE000002B04D04FF480711448FCF7E1FE3B1D1A
:103DF000082219460F4804F0B3F80346002B04D0FC
:103E00004FF482710D48FCF7D3FE3B1D0C2219467E
:103E1000084804F0A5F80346002B04D04FF4847141
:103E20000648FCF7C5FE034800F0DAFB00BF283760
:103E3000BD4680BD9C210020000800407CBC0008DD
:103E400080B592B000AF07F1400300221A605A60BB
:103E500007F1240300221A605A609A60DA601A613E
:103E60005A619A613B1D20220021184606F0C8FACB
:103E7000484B494A1A60474B53225A60454B00222F
:103E80009A60444B41F65832DA60424B00221A6184
:103E9000404B00225A613F4B00229A613D4803F09B
:103EA00048FF0346002B04D04FF494713B48FCF7C5
:103EB0007FFE00233B6400237B6407F14003194627
:103EC000344803F019FE0346002B04D04FF49771D9
:103ED0003248FCF76DFE60237B620023BB62002347
:103EE000FB6200233B6300237B630023BB6300234F
:103EF000FB6307F1240300221946264804F030F83A
:103F00000346002B04D040F239112448FCF750FE40
:103F100007F12403042219461E4804F021F8034641
:103F2000002B04D040F23D111C48FCF741FE07F184
:103F300024030C221946174804F012F80346002BFC
:103F400004D040F241111548FCF732FE00237B609B
:103F50000023BB600023FB6000233B6100237B61E7
:103F60004FF40053BB6100233B623B1D19460948D7
:103F700003F03EFE0346002B04D04FF4A671074821
:103F8000FCF716FE034800F02BFB00BF4837BD4688
:103F900080BD00BFE4210020000401407CBC00087B
:103FA00080B588B000AF3B1D00221A605A609A604D
:103FB000DA601A615A619A61244B254A1A60234BD0
:103FC00000225A60214B00229A60204B4FF6FF726C
:103FD000DA601E4B00221A611C4B00229A611B48BA
:103FE00003F0A7FE0346002B04D040F269111948E4
:103FF000FCF7DEFD60237B600023BB600023FB60D9
:1040000000237B613B1D00221946104803F0A8FFE6
:104010000346002B04D040F271110E48FCF7C8FD96
:104020003B1D04221946094803F09AFF0346002B62
:1040300004D040F275110748FCF7BAFD034800F0C0
:10404000CFFA00BF2037BD4680BD00BF2C22002024
:10405000004001407CBC000880B588B000AF3B1D2B
:1040600000221A605A609A60DA601A615A619A6195
:10407000224B234A1A60214B00225A601F4B002218
:104080009A601E4B4FF6FF72DA601C4B00221A61D9
:104090001A4B00229A61194803F0FCFD0346002BDD
:1040A00004D04FF4C9711748FCF782FD134803F0A0
:1040B00040FE0346002B04D04FF4CB711148FCF7AF
:1040C00077FD60237B600023BB600023FB6000233F
:1040D0007B613B1D00221946084803F041FF03465F
:1040E000002B04D04FF4CF710648FCF761FD034864
:1040F00000F076FA00BF2037BD4680BD7422002054
:10410000004401407CBC000880B588B000AF3B1D76
:1041100000221A605A609A60DA601A615A619A61E4
:10412000224B234A1A60214B00225A601F4B002267
:104130009A601E4B4FF6FF72DA601C4B00221A6128
:104140001A4B00229A61194803F0A4FD0346002B84
:1041500004D040F2BB111748FCF72AFD134803F0C6
:10416000E8FD0346002B04D040F2BF111148FCF7D4
:104170001FFD60237B600023BB600023FB600023E6
:104180007B613B1D00221946084803F0E9FE034607
:10419000002B04D040F2C7110648FCF709FD034884
:1041A00000F01EFA00BF2037BD4680BDBC220020B3
:1041B000004801407CBC000880B588B000AF3B1DC2
:1041C00000221A605A609A60DA601A615A619A6134
:1041D000244B254A1A60234B00225A60214B0022AF
:1041E0009A60204B4FF6FF72DA601E4B00221A6174
:1041F0001C4B00229A611B4803F09BFD0346002BD9
:1042000004D04FF4F2711948FCF7D2FC60237B60B4
:104210000023BB600023FB6000237B613B1D002269
:104220001946104803F09CFE0346002B04D04FF4BF
:10423000F6710E48FCF7BCFC3B1D042219460948E8
:1042400003F08EFE0346002B04D04FF4F8710748AC
:10425000FCF7AEFC034800F0C3F900BF2037BD46B1
:1042600080BD00BF04230020001800407CBC000873
:1042700080B588B000AF3B1D00221A605A609A607A
:10428000DA601A615A619A61224B234A1A60214B03
:1042900000225A601F4B00229A601E4B4FF6FF729D
:1042A000DA601C4B00221A611A4B00229A611948ED
:1042B00003F0F0FC0346002B04D040F20D21174818
:1042C000FCF776FC134803F034FD0346002B04D0C2
:1042D00040F211211148FCF76BFC60237B60002346
:1042E000BB600023FB6000237B613B1D002219465D
:1042F000084803F035FE0346002B04D040F2192194
:104300000648FCF755FC034800F06AF900BF203767
:10431000BD4680BD4C230020001C00407CBC000832
:1043200080B588B000AF3B1D00221A605A609A60C9
:10433000DA601A615A619A61224B234A1A60214B52
:1043400000225A601F4B00229A601E4B4FF6FF72EC
:10435000DA601C4B00221A611A4B00229A6119483C
:1043600003F098FC0346002B04D040F23621174896
:10437000FCF71EFC134803F0DCFC0346002B04D0C2
:1043800040F23A211148FCF713FC60237B600023C4
:10439000BB600023FB6000237B613B1D00221946AC
:1043A000084803F0DDFD0346002B04D040F2422113
:1043B0000648FCF7FDFB034800F012F900BF203768
:1043C000BD4680BD94230020002000407CBC000836
:1043D00080B48BB000AF78607B681B68474A93421B
:1043E0000ED100237B62464B5B6C454A43F00103D0
:1043F0005364434B5B6C03F001037B627B6A76E0A2
:104400007B681B68B3F1804F0ED100233B623C4BAD
:104410001B6C3B4A43F001031364394B1B6C03F0E4
:1044200001033B623B6A62E07B681B68354A93424A
:104430000ED10023FB61324B1B6C314A43F0020367
:1044400013642F4B1B6C03F00203FB61FB694EE00E
:104450007B681B682C4A93420ED10023BB61284B1A
:104460001B6C274A43F004031364254B1B6C03F0B9
:104470000403BB61BB693AE07B681B68234A934233
:104480000ED100237B611E4B5B6C1D4A43F002037F
:1044900053641B4B5B6C03F002037B617B6926E07A
:1044A0007B681B681A4A93420ED100233B61144B70
:1044B0005B6C134A43F480335364114B5B6C03F41D
:1044C00080333B613B6912E07B681B68114A934271
:1044D0000DD10023FB600A4B1B6C094A43F04003DB
:1044E0001364074B1B6C03F04003FB60FB6800BFC9
:1044F0002C37BD465DF8047B704700BF00000140CB
:104500000038024000040040000800400004014060
:10451000004001400018004080B487B000AF7860D0
:104520007B681B68294A93420ED100237B61284B8C
:104530005B6C274A43F400335364254B5B6C03F4F4
:1045400000337B617B693AE07B681B68214A9342B8
:104550000ED100233B611E4B5B6C1D4A43F480234C
:1045600053641B4B5B6C03F480233B613B6926E087
:104570007B681B68184A93420ED10023FB60144BE2
:104580001B6C134A43F080031364114B1B6C03F044
:104590008003FB60FB6812E07B681B680F4A934254
:1045A0000DD10023BB600A4B1B6C094A43F4807396
:1045B0001364074B1B6C03F48073BB60BB6800BFC4
:1045C0001C37BD465DF8047B704700BF00440140C6
:1045D0000038024000480140001C0040002000401C
:1045E00080B594B000AF786007F13C0300221A60F8
:1045F0005A609A60DA601A617B681B68A04A93422D
:104600001FD10023BB639F4B1B6B9E4A43F01003DB
:1046100013639C4B1B6B03F01003BB63BB6B4FF42A
:10462000D443FB6302233B6400237B640023BB640D
:104630000123FB6407F13C031946934801F01CFE7B
:10464000A4E17B681B68B3F1804F1ED100237B631C
:104650008C4B1B6B8B4A43F001031363894B1B6B21
:1046600003F001037B637B6B0F23FB6302233B643B
:1046700000237B640023BB640123FB6407F13C033C
:104680001946824801F0F8FD80E17B681B68804A8A
:1046900093423DD100233B637A4B1B6B794A43F035
:1046A00002031363774B1B6B03F002033B633B6B0B
:1046B0000023FB62734B1B6B724A43F004031363CA
:1046C000704B1B6B03F00403FB62FB6A0223FB636A
:1046D00002233B6400237B640023BB640223FB644E
:1046E00007F13C0319466B4801F0C6FD4FF4807397
:1046F000FB6302233B6400237B640023BB6402232F
:10470000FB6407F13C031946634801F0B5FD3DE148
:104710007B681B68614A93421FD10023BB62594BDF
:104720001B6B584A43F008031363564B1B6B03F093
:104730000803BB62BB6A4FF47043FB6302233B6414
:1047400000237B640023BB640223FB6407F13C036A
:104750001946534801F090FD18E17B681B68514AE7
:1047600093421FD100237B62464B1B6B454A43F0AB
:1047700004031363434B1B6B03F004037B627B6AEC
:104780004FF43073FB6302233B6400237B640023FC
:10479000BB640323FB6407F13C0319463E4801F068
:1047A0006BFDF3E07B681B683F4A93421ED10023F8
:1047B0003B62344B1B6B334A43F010031363314BA2
:1047C0001B6B03F010033B623B6A6023FB63022315
:1047D0003B6400237B640023BB640323FB6407F179
:1047E0003C031946284801F047FDCFE07B681B6871
:1047F0002E4A93421FD10023FB61224B1B6B214A9F
:1048000043F0020313631F4B1B6B03F00203FB61B6
:10481000FB694FF48073FB6302233B6400237B64DA
:104820000023BB640323FB6407F13C0319461948CA
:1048300001F022FDAAE07B681B681D4A934239D132
:104840000023BB610F4B1B6B0E4A43F00203136343
:104850000C4B1B6B03F00203BB61BB694FF400738D
:10486000FB6302233B6400237B640023BB640323BC
:10487000FB6407F13C031946064801F0FDFC85E0A6
:1048800000000140003802400010024000000240D9
:1048900000040040000402400008024000080040FC
:1048A000000C02400004014000400140004401406F
:1048B000004801407B681B68364A93421FD10023A1
:1048C0007B61354B1B6B344A43F002031363324B5D
:1048D0001B6B03F002037B617B694FF44043FB6376
:1048E00002233B6400237B640023BB640923FB6435
:1048F00007F13C031946294801F0BEFC46E07B68FD
:104900001B68274A93421ED100233B61224B1B6B3D
:10491000214A43F0010313631F4B1B6B03F0010398
:104920003B613B694023FB6302233B6400237B64C0
:104930000023BB640923FB6407F13C0319461948B3
:1049400001F09AFC22E07B681B68174A93421DD154
:104950000023FB60104B1B6B0F4A43F001031363F2
:104960000D4B1B6B03F00103FB60FB688023FB63B3
:1049700002233B6400237B640023BB640923FB64A4
:1049800007F13C031946074801F076FC00BF503799
:10499000BD4680BD001800400038024000040240BF
:1049A000001C0040000002400020004080B500AF25
:1049B000124B134A1A60114B4FF4E1325A600F4BFD
:1049C00000229A600D4B0022DA600C4B00221A6123
:1049D0000A4B0C225A61094B00229A61074B0022B4
:1049E000DA61064803F01CFE0346002B03D0342195
:1049F0000448FCF7DDF800BF80BD00BFDC230020C9
:104A00000050004094BC000880B500AF124B134A20
:104A10001A60114B4FF4E1325A600F4B00229A603A
:104A20000D4B0022DA600C4B00221A610A4B0C225B
:104A30005A61094B00229A61074B0022DA6106484D
:104A400003F0EEFD0346002B03D051210448FCF790
:104A5000AFF800BF80BD00BF50240020001001400F
:104A600094BC000880B500AF124B134A1A60114B7A
:104A7000124A5A600F4B00229A600E4B4FF40052BC
:104A8000DA600C4B4FF480621A610A4B0C225A61B7
:104A9000084B00229A61074B0022DA61054803F0B7
:104AA000BFFD0346002B03D06D210548FCF780F8BD
:104AB00000BF80BDC424002000480040A086010043
:104AC00094BC000880B58EB000AF786007F1240375
:104AD00000221A605A609A60DA601A617B681B686B
:104AE000674A934253D100233B62664B1B6C654A75
:104AF00043F480131364634B1B6C03F480133B6219
:104B00003B6A0023FB615F4B1B6B5E4A43F004036F
:104B100013635C4B1B6B03F00403FB61FB69002315
:104B2000BB61584B1B6B574A43F008031363554B4B
:104B30001B6B03F00803BB61BB694FF480537B62BE
:104B40000223BB620023FB6203233B6308237B63D6
:104B500007F1240319464C4801F08EFB04237B62C5
:104B60000223BB620023FB6203233B6308237B63B6
:104B700007F124031946454801F07EFB002203217A
:104B8000352001F082F9352001F09BF974E07B6853
:104B90001B683F4A934235D100237B61394B5B6CE4
:104BA000384A43F010035364364B5B6C03F0100338
:104BB0007B617B6900233B61324B1B6B314A43F0C5
:104BC000010313632F4B1B6B03F001033B613B6934
:104BD0004FF4C0637B620223BB620023FB620323AA
:104BE0003B6307237B6307F124031946294801F03F
:104BF00043FB00220321252001F047F9252001F085
:104C000060F939E07B681B68234A934234D1002362
:104C1000FB601C4B1B6C1B4A43F480231364194B31
:104C20001B6C03F48023FB60FB680023BB60154B07
:104C30001B6B144A43F004031363124B1B6B03F00A
:104C40000403BB60BB684FF440637B620223BB621A
:104C50000023FB6203233B6307237B6307F12403E9
:104C60001946094801F008FB00220321272001F022
:104C70000CF9272001F025F900BF3837BD4680BD6B
:104C8000005000400038024000080240000C024082
:104C9000001001400000024000480040DFF834D01E
:104CA0000D480E490E4A002302E0D458C450043384
:104CB000C4188C42F9D30B4A0B4C002301E013605B
:104CC0000432A242FBD3FEF76BFE05F03DFBFBF77F
:104CD000C3FE704700000220000000208400002076
:104CE00024C100088400002088250020FEE7000081
:104CF00080B584B000AF78600023FB737B681B68CD
:104D00002E4A93424DD02D4A93424DD82C4A93427D
:104D100047D02B4A934247D82A4A934241D0294A46
:104D2000934241D8284A93423BD0274A93423BD8EA
:104D3000264A934235D0254A934235D8244A934295
:104D40002CD0234A93422FD8224A934226D0214A7C
:104D5000934229D8204A934220D01F4A934223D815
:104D60001E4A93421AD01D4A93421DD81C4A9342B0
:104D700014D01B4A934217D81A4A93420ED0194AAC
:104D8000934211D8184A934208D0174A93420BD83D
:104D9000B3F1804F02D0154A934205D10123FB7332
:104DA00007E00223FB7304E05A211148FBF700FFE0
:104DB00000BFFB7B18461037BD4680BD0048014050
:104DC0000044014000400140000401400000014057
:104DD00000200040001C004000180040001400406B
:104DE00000100040000C004000080040000400409B
:104DF000B0BC000880B58AB000AF786007F10C0342
:104E000000221A605A609A60DA601A610023BB605F
:104E100000237B6200233B6207F1080207F10C03C9
:104E20001146184602F004FA7868FFF761FF03465E
:104E3000012B02D0022B06D00BE0BB693B6202F0D3
:104E4000CFF978620AE0FB693B6202F0DDF9786233
:104E500004E081211248FBF7ABFE00BF3B6AB3F5CB
:104E6000E05F13D03B6AB3F5E05F13D83B6AB3F55C
:104E7000C05F0BD03B6AB3F5C05F0BD83B6AB3F59C
:104E8000805F03D03B6AB3F5A05F03D17B6A5B0010
:104E90007B6200E000BF7B6A18462837BD4680BDB4
:104EA000B0BC000880B588B000AFF860B9601346A8
:104EB000FB71FB79012B02D0022B1BD034E0F86888
:104EC000FFF798FF0346264AA2FB03239A0CBB6810
:104ED00002FB03F37B617B691B0C01333B61FB68C5
:104EE0001B683A69013A9A627A693B69B2FBF3F34B
:104EF000BB611CE0BB68002B2ED0F868FFF77AFF7F
:104F00000246BB68B2FBF3F37B617B691B0C013388
:104F10003B61FB681B683A69013A9A627A693B69AE
:104F2000B2FBF3F3BB6102E0BB68BB6100BFBB69CE
:104F3000002B03D0BB69013BFB6101E00023FB6157
:104F4000FB681B68FA69DA62FB68FA69DA600121BA
:104F5000F86803F0C7F800E000BF2037BD4680BD09
:104F600083DE1B4380B588B000AFF860B9607A601B
:104F7000FB70FB681B689B6A0133BB61BB68B3F1C4
:104F8000FF3F04D14FF4A4713848FBF711FEFB78C2
:104F9000832B28D0832B45DC822B18D0822B41DC3D
:104FA000102B02DC002B2DDC3CE0812B3AD1F86881
:104FB000FFF720FF03462E4AA2FB03239B0C7A68CF
:104FC00003FB02F2BB69B2FBF3F3FB612DE0F8686F
:104FD000FFF710FF01467B68BA6902FB03F3B1FBE0
:104FE000F3F3FB6121E0FB681B68DB6A01337B6143
:104FF0007B697A6802FB03F31E4AA2FB03235B0969
:10500000FB6112E0FB681B68DB6A01337A6802FB14
:1050100003F3FA78012101FA02F2013AB3FBF2F349
:10502000FB6102E07B68FB6100BFBB68002B04D121
:10503000FB681B68FA695A6313E0BB68042B04D150
:10504000FB681B68FA699A630BE0BB68082B04D104
:10505000FB681B68FA69DA6303E0FB681B68FA699E
:105060001A6400BF2037BD4680BD00BFB0BC000839
:1050700083DE1B431F85EB5180B582B000AF7860A3
:10508000786804F0CFFD00BF0837BD4680BD000042
:1050900080B500AF044B1B68044A118800221846F3
:1050A00001F09EFA00BF80BD3C2500204225002073
:1050B00080B500AF044B1B68044A118801221846D2
:1050C00001F08EFA00BF80BD3C2500204225002063
:1050D00080B588B002AF0346FB71194B186807F121
:1050E0000F02F91D4FF4FA630093012302F097FABF
:1050F0000346FB7500233B61FB7D002B07D03B691A
:1051000001333B613B691D2B01DC012300E00023DF
:10511000002B10D03220FFF7AFFF094B186807F1C2
:105120000F02F91D4FF4FA630093012302F077FA9E
:105130000346FB75E0E7FB7B18461837BD4680BD8C
:105140000400002080B584B000AF0346FB71FFF778
:105150009FFFFB7903F01F03DBB21846FFF7B8FF90
:10516000FF20FFF7B5FF0346FB73FFF7A1FFFB7BB3
:1051700018461037BD4680BD80B582B000AF0346EB
:105180000A46FB711346BB71FFF782FFFB791F2BA9
:105190000ED8FB7903F01F03DBB243F02003DBB230
:1051A0001846FFF795FFBB791846FFF791FF13E00C
:1051B000FB791846FFF78CFFFB79E12B0CD0FB79CC
:1051C000E22B09D0FB79E32B06D0FB79FF2B03D030
:1051D000BB791846FFF77CFFFFF76AFF00BF08376F
:1051E000BD4680BD90B583B000AF03463960FB710A
:1051F0001346BB71FFF74CFFFB791846FFF768FFBA
:10520000BB795A1EBA71002B14BF01230023DBB2F5
:10521000002B08D03C68631C3B60FF20FFF758FF61
:1052200003462370ECE7FFF743FF00BF0C37BD4692
:1052300090BD80B582B000AF03463960FB71134664
:10524000BB71FFF725FFFB791846FFF741FFBB79DC
:105250005A1EBA71002B14BF01230023DBB2002BAE
:1052600007D03B685A1C3A601B781846FFF730FF9E
:10527000EDE7FFF71DFF00BF0837BD4680BD80B5D5
:1052800000AF08210020FFF777FF3F210120FFF743
:1052900073FF03210220FFF76FFF03210320FFF7B5
:1052A0006BFF03210420FFF767FF02210520FFF7B2
:1052B00063FF0E210620FFF75FFF00210720FFF7A5
:1052C0005BFF00211120FFF757FF00211220FFF79D
:1052D00053FF00211320FFF74FFF00211420FFF799
:1052E0004BFF00211520FFF747FF00211620FFF795
:1052F00043FF00211C20FFF73FFF00211D20FFF787
:105300003BFF00F00BFA00F001FA00F00FFAFFF794
:10531000CFFE00BF80BD000080B584B000AF164B4B
:10532000BB600522B9683020FFF783FF3B460522AA
:1053300019461020FFF756FF0023FB73FB7B042B5D
:1053400015D8FB7B10333B4413F8102CBB68591C59
:10535000B9601B789A4214BF01230023DBB2002BF3
:1053600001D0002304E0FB7B0133FB73E6E701235C
:1053700018461037BD4680BDE4BC000880B584B037
:1053800000AF0346FB710020FFF7DCFE0346FB7312
:10539000FB79022B04D1FB7B43F00203FB7303E098
:1053A000FB7B23F00203FB73FB7B19460020FFF716
:1053B000E3FE00BF1037BD4680BD80B584B000AFAE
:1053C0000346FB710020FFF7BDFE0346FB73FB7B2A
:1053D00023F00103FB73FB7903F00103DAB2FB7BDB
:1053E0001343FB73FB7B19460020FFF7C5FE00BF8C
:1053F0001037BD4680BD80B584B000AF0346FB7159
:105400001D20FFF79FFE0346FB73FB79002B0CD09A
:10541000FB7B43F00403DBB219461D20FFF7ACFE13
:105420001F211C20FFF7A8FE0BE0FB7B23F00403E9
:10543000DBB219461D20FFF79FFE00211C20FFF75D
:105440009BFE00BF1037BD4680BD80B584B000AF65
:105450000346FB711D20FFF775FE0346FB73FB79C6
:10546000002B08D0FB7B43F00203DBB219461D2062
:10547000FFF782FE07E0FB7B23F00203DBB2194655
:105480001D20FFF779FE00BF1037BD4680BD80B5F7
:1054900084B000AF0346FB710020FFF753FE0346C4
:1054A000FB73FB7B23F00C03FB73FB7903F00C0312
:1054B000DAB2FB7B1343FB73FB7B19460020FFF73B
:1054C0005BFE00BF1037BD4680BD80B582B000AF27
:1054D0000346FB71FB7919460520FFF74DFE00BF1F
:1054E0000837BD4680BD80B582B000AF0346FB7172
:1054F000FB79023BDBB219460320FFF73DFE00BFFC
:105500000837BD4680BD000080B584B000AF0346BB
:105510003960FB71FB79062B0AD0062B3CDC012B92
:1055200002DC002B04DA37E0023B032B34D829E0FD
:105530000320FFF707FE03460133FB73FB7B3A684A
:1055400013443B60FFF7A4FDFB79164AD35C43F09C
:105550002003DBB21846FFF7BBFD3B685A1E3A60DA
:105560001B781846FFF7B4FDFB7B5A1EFA73002B1D
:1055700014BF01230023DBB2002B00D0EDE7FFF7BF
:1055800097FD0AE0FB79074AD25C3B681B78194615
:105590001046FFF7F1FD00E000BF00BF1037BD4629
:1055A00080BD00BF70C0000880B584B000AF034666
:1055B000FB710620FFF7C6FD0346FB73FB7B23F060
:1055C0000603FB73FA7BFB791343FB73FB7B1946E2
:1055D0000620FFF7D1FD00BF1037BD4680BD80B566
:1055E00084B000AF0346FB710620FFF7ABFD034616
:1055F000FB73FB7B23F02803FB73FA7BFB791343DC
:10560000FB73FB7B19460620FFF7B6FD00BF103782
:10561000BD4680BD80B584B000AF0346FB710B462C
:10562000BB7113467B710220FFF78CFD03465AB213
:10563000FB79012101FA03F35BB213435BB2DBB2E6
:1056400003F03F03FB73FB7B19460220FFF794FD39
:10565000FB79194AD25C7B7903F03F03DBB2194630
:105660001046FFF789FD0120FFF76CFD0346FB7331
:10567000BB79012B0AD1FB79012202FA03F35AB25A
:1056800097F90F3013435BB2FB730BE0FB790122F8
:1056900002FA03F35BB2DB435AB297F90F301340BF
:1056A0005BB2FB73FB7B19460120FFF765FD00BF72
:1056B0001037BD4680BD00BF68C0000880B584B00B
:1056C00000AF0346FB710120FFF73CFD0346FB736F
:1056D000FB79012202FA03F35AB297F90F30134310
:1056E0005BB2FB73FB7B19460120FFF745FD00BF52
:1056F0001037BD4680BD80B500AF0720FFF722FD03
:10570000034603F07003DBB2184680BD80B500AFDE
:10571000FF21E120FFF730FD00BF80BD80B500AF65
:10572000FF21E220FFF728FD00BF80BD80B582B0D9
:1057300000AF0720FFF706FD0346FB71FB7943F03E
:105740007003FB71FB7919460720FFF715FD00BFB9
:105750000837BD4680BD80B582B000AFFFF798FC2A
:105760006020FFF7B5FCFF20FFF7B2FC0346FB719A
:10577000FFF79EFCFB7918460837BD4680BD000048
:1057800080B586B000AFF860B9601346FB710720A2
:10579000FFF7D8FC03465B08DBB203F00703FB7599
:1057A000FB7D052B29D8FB79002B0FD0FFF7D3FF0A
:1057B00003461A46BB681A70BB681B78202B0FD9AA
:1057C000BB6800221A70FFF7A9FF09E0FB7D0F4AB2
:1057D000D35C1846FFF7B6FC03461A46BB681A703E
:1057E000BB681B78002B06D0BB681B781A46F9688B
:1057F0006120FFF7F7FCFB7D03E0BB6800221A7015
:10580000FF2318461837BD4680BD00BF68C000089A
:1058100080B582B000AF786039600122396878685D
:10582000FFF7AEFF034618460837BD4680BD80B57A
:1058300082B000AF03463960FB711346BB71FFF7BE
:1058400027FCFB7963F05703DBB21846FFF740FCF7
:10585000BB795A1EBA71002B14BF01230023DBB29F
:10586000002B07D03B685A1C3A601B781846FFF79C
:105870002FFCEDE7FFF71CFC00BF0837BD4680BDDD
:1058800080B582B000AF78607B680F221A717B68A8
:10589000B3F91E30DAB27B685A717B68B3F91E30F7
:1058A0001B121BB25BB203F007035AB27B68B3F959
:1058B00020309BB2DB005BB223F007035BB21343E3
:1058C0005BB2DAB27B689A717B68B3F920305B1106
:1058D0001BB25BB203F03F035AB27B68B3F92230CC
:1058E0009BB29B015BB223F03F035BB213435BB2FD
:1058F000DAB27B68DA717B68B3F922309B101BB295
:10590000DAB27B681A727B68B3F922309B121BB241
:105910005BB203F001035AB27B68B3F924309BB247
:105920005B005BB223F001035BB213435BB2DAB2FC
:105930007B685A727B68B3F92430DB111BB25BB20F
:1059400003F00F035AB27B68B3F926309BB21B01F8
:105950005BB223F00F035BB213435BB2DAB27B6836
:105960009A727B68B3F926301B111BB25BB203F04D
:105970007F035AB27B68B3F928309BB2DB015BB27C
:1059800023F07F035BB213435BB2DAB27B68DA7257
:105990007B68B3F928305B101BB2DAB27B681A73EC
:1059A0007B68B3F928305B121BB25BB203F00303D0
:1059B0005AB27B68B3F92A309BB29B005BB223F0EA
:1059C00003035BB213435BB2DAB27B685A737B6842
:1059D000B3F92A309B111BB25BB203F01F035AB21A
:1059E0007B68B3F92C309BB25B015BB213435BB2B3
:1059F000DAB27B689A737B68B3F92C30DB101BB288
:105A0000DAB27B68DA737B68B3F92E30DAB27B687E
:105A10001A747B68B3F92E301B121BB25BB203F011
:105A200007035AB27B68B3F930309BB2DB005BB23C
:105A300023F007035BB213435BB2DAB27B685A749C
:105A40007B68B3F930305B111BB25BB203F03F03EC
:105A50005AB27B68B3F932309BB29B015BB223F040
:105A60003F035BB213435BB2DAB27B689A747B6824
:105A7000B3F932309B101BB2DAB27B68DA747B6800
:105A8000B3F932309B121BB25BB203F001035AB27E
:105A90007B68B3F934309BB25B005BB223F0010347
:105AA0005BB213435BB2DAB27B681A757B68B3F9F9
:105AB0003430DB111BB25BB203F00F035AB27B68C8
:105AC000B3F936309BB21B015BB223F00F035BB21C
:105AD00013435BB2DAB27B685A757B68B3F9363030
